{
  "_format": "hh-sol-artifact-1",
  "contractName": "Escrow",
  "sourceName": "contracts/Escrow.sol",
  "abi": [
    {
      "inputs": [
        {
          "internalType": "address",
          "name": "_arbiter",
          "type": "address"
        },
        {
          "internalType": "address",
          "name": "_beneficiary",
          "type": "address"
        }
      ],
      "stateMutability": "payable",
      "type": "constructor"
    },
    {
      "anonymous": false,
      "inputs": [
        {
          "indexed": false,
          "internalType": "uint256",
          "name": "",
          "type": "uint256"
        }
      ],
      "name": "Approved",
      "type": "event"
    },
    {
      "inputs": [],
      "name": "approve",
      "outputs": [],
      "stateMutability": "nonpayable",
      "type": "function"
    },
    {
      "inputs": [],
      "name": "arbiter",
      "outputs": [
        {
          "internalType": "address",
          "name": "",
          "type": "address"
        }
      ],
      "stateMutability": "view",
      "type": "function"
    },
    {
      "inputs": [],
      "name": "balance",
      "outputs": [
        {
          "internalType": "uint256",
          "name": "",
          "type": "uint256"
        }
      ],
      "stateMutability": "view",
      "type": "function"
    },
    {
      "inputs": [],
      "name": "beneficiary",
      "outputs": [
        {
          "internalType": "address",
          "name": "",
          "type": "address"
        }
      ],
      "stateMutability": "view",
      "type": "function"
    },
    {
      "inputs": [],
      "name": "depositor",
      "outputs": [
        {
          "internalType": "address",
          "name": "",
          "type": "address"
        }
      ],
      "stateMutability": "view",
      "type": "function"
    },
    {
      "inputs": [],
      "name": "isApproved",
      "outputs": [
        {
          "internalType": "bool",
          "name": "",
          "type": "bool"
        }
      ],
      "stateMutability": "view",
      "type": "function"
    }
  ],
  "bytecode": "0x60806040526040516107df3803806107df833981810160405281019061002591906101e3565b816000806101000a81548173ffffffffffffffffffffffffffffffffffffffff021916908373ffffffffffffffffffffffffffffffffffffffff16021790555080600160006101000a81548173ffffffffffffffffffffffffffffffffffffffff021916908373ffffffffffffffffffffffffffffffffffffffff16021790555033600260006101000a81548173ffffffffffffffffffffffffffffffffffffffff021916908373ffffffffffffffffffffffffffffffffffffffff16021790555060646063346100f6919061025c565b61010091906102cd565b60038190555073e2c36ed0dfb0b0abfdb92d500adcf4ffe81523b573ffffffffffffffffffffffffffffffffffffffff166108fc6064600134610143919061025c565b61014d91906102cd565b9081150290604051600060405180830381858888f19350505050158015610178573d6000803e3d6000fd5b5050506102fe565b600080fd5b600073ffffffffffffffffffffffffffffffffffffffff82169050919050565b60006101b082610185565b9050919050565b6101c0816101a5565b81146101cb57600080fd5b50565b6000815190506101dd816101b7565b92915050565b600080604083850312156101fa576101f9610180565b5b6000610208858286016101ce565b9250506020610219858286016101ce565b9150509250929050565b6000819050919050565b7f4e487b7100000000000000000000000000000000000000000000000000000000600052601160045260246000fd5b600061026782610223565b915061027283610223565b925082820261028081610223565b915082820484148315176102975761029661022d565b5b5092915050565b7f4e487b7100000000000000000000000000000000000000000000000000000000600052601260045260246000fd5b60006102d882610223565b91506102e383610223565b9250826102f3576102f261029e565b5b828204905092915050565b6104d28061030d6000396000f3fe608060405234801561001057600080fd5b50600436106100625760003560e01c806312424e3f1461006757806328f371aa1461007157806338af3eed1461008f578063b69ef8a8146100ad578063c7c4ff46146100cb578063fe25e00a146100e9575b600080fd5b61006f610107565b005b61007961028a565b604051610086919061032e565b60405180910390f35b61009761029d565b6040516100a4919061038a565b60405180910390f35b6100b56102c3565b6040516100c291906103be565b60405180910390f35b6100d36102c9565b6040516100e0919061038a565b60405180910390f35b6100f16102ef565b6040516100fe919061038a565b60405180910390f35b60008054906101000a900473ffffffffffffffffffffffffffffffffffffffff1673ffffffffffffffffffffffffffffffffffffffff163373ffffffffffffffffffffffffffffffffffffffff161461015f57600080fd5b600060035490506000600160009054906101000a900473ffffffffffffffffffffffffffffffffffffffff1673ffffffffffffffffffffffffffffffffffffffff16826040516101ae9061040a565b60006040518083038185875af1925050503d80600081146101eb576040519150601f19603f3d011682016040523d82523d6000602084013e6101f0565b606091505b5050905080610234576040517f08c379a000000000000000000000000000000000000000000000000000000000815260040161022b9061047c565b60405180910390fd5b7f3ad93af63cb7967b23e4fb500b7d7d28b07516325dcf341f88bebf959d82c1cb8260405161026391906103be565b60405180910390a16001600460006101000a81548160ff0219169083151502179055505050565b600460009054906101000a900460ff1681565b600160009054906101000a900473ffffffffffffffffffffffffffffffffffffffff1681565b60035481565b600260009054906101000a900473ffffffffffffffffffffffffffffffffffffffff1681565b60008054906101000a900473ffffffffffffffffffffffffffffffffffffffff1681565b60008115159050919050565b61032881610313565b82525050565b6000602082019050610343600083018461031f565b92915050565b600073ffffffffffffffffffffffffffffffffffffffff82169050919050565b600061037482610349565b9050919050565b61038481610369565b82525050565b600060208201905061039f600083018461037b565b92915050565b6000819050919050565b6103b8816103a5565b82525050565b60006020820190506103d360008301846103af565b92915050565b600081905092915050565b50565b60006103f46000836103d9565b91506103ff826103e4565b600082019050919050565b6000610415826103e7565b9150819050919050565b600082825260208201905092915050565b7f4661696c656420746f2073656e64204574686572000000000000000000000000600082015250565b600061046660148361041f565b915061047182610430565b602082019050919050565b6000602082019050818103600083015261049581610459565b905091905056fea2646970667358221220c5ec7c359193286677dd4308f87bf5addc33ca84827152559fa6acedc38246ac64736f6c63430008110033",
  "linkReferences": {},
  "deployedLinkReferences": {}
}